{
  "_format": "hh-sol-artifact-1",
  "contractName": "WavePortal",
  "sourceName": "contracts/WavePortal.sol",
  "abi": [
    {
      "inputs": [],
      "stateMutability": "nonpayable",
      "type": "constructor"
    },
    {
      "inputs": [],
      "name": "getMostRecentWaveEvent",
      "outputs": [
        {
          "internalType": "address",
          "name": "from",
          "type": "address"
        },
        {
          "internalType": "uint256",
          "name": "gas",
          "type": "uint256"
        }
      ],
      "stateMutability": "view",
      "type": "function"
    },
    {
      "inputs": [],
      "name": "getTotalWaves",
      "outputs": [
        {
          "internalType": "uint256",
          "name": "",
          "type": "uint256"
        }
      ],
      "stateMutability": "view",
      "type": "function"
    },
    {
      "inputs": [],
      "name": "wave",
      "outputs": [],
      "stateMutability": "nonpayable",
      "type": "function"
    }
  ],
  "bytecode": "0x608060405234801561001057600080fd5b5061003c6040518060600160405280602581526020016109316025913961004160201b6102bc1760201c565b6101c4565b6100dd816040516024016100559190610142565b6040516020818303038152906040527f41304fac000000000000000000000000000000000000000000000000000000007bffffffffffffffffffffffffffffffffffffffffffffffffffffffff19166020820180517bffffffffffffffffffffffffffffffffffffffffffffffffffffffff83818316178352505050506100e060201b60201c565b50565b60008151905060006a636f6e736f6c652e6c6f679050602083016000808483855afa5050505050565b600061011482610164565b61011e818561016f565b935061012e818560208601610180565b610137816101b3565b840191505092915050565b6000602082019050818103600083015261015c8184610109565b905092915050565b600081519050919050565b600082825260208201905092915050565b60005b8381101561019e578082015181840152602081019050610183565b838111156101ad576000848401525b50505050565b6000601f19601f8301169050919050565b61075e806101d36000396000f3fe608060405234801561001057600080fd5b50600436106100415760003560e01c80636fe15b44146100465780639a2cdc0814610050578063aacd57f91461006e575b600080fd5b61004e61008d565b005b610058610190565b60405161006591906105b8565b60405180910390f35b6100766101db565b60405161008492919061050d565b60405180910390f35b600160008082825461009f91906105ef565b925050819055506100e56040518060400160405280600d81526020017f257320686173207761766564210000000000000000000000000000000000000081525033610355565b600160405180604001604052803373ffffffffffffffffffffffffffffffffffffffff1681526020013a815250908060018154018082558091505060019003906000526020600020906002020160009091909190915060008201518160000160006101000a81548173ffffffffffffffffffffffffffffffffffffffff021916908373ffffffffffffffffffffffffffffffffffffffff160217905550602082015181600101555050565b60006101d36040518060400160405280601781526020017f5765206861766520256420746f74616c207761766573210000000000000000008152506000546103f1565b600054905090565b60008060018080805490506101f09190610645565b81548110610227577f4e487b7100000000000000000000000000000000000000000000000000000000600052603260045260246000fd5b906000526020600020906002020160000160009054906101000a900473ffffffffffffffffffffffffffffffffffffffff169150600180808054905061026d9190610645565b815481106102a4577f4e487b7100000000000000000000000000000000000000000000000000000000600052603260045260246000fd5b90600052602060002090600202016001015490509091565b610352816040516024016102d09190610536565b6040516020818303038152906040527f41304fac000000000000000000000000000000000000000000000000000000007bffffffffffffffffffffffffffffffffffffffffffffffffffffffff19166020820180517bffffffffffffffffffffffffffffffffffffffffffffffffffffffff838183161783525050505061048d565b50565b6103ed828260405160240161036b929190610558565b6040516020818303038152906040527f319af333000000000000000000000000000000000000000000000000000000007bffffffffffffffffffffffffffffffffffffffffffffffffffffffff19166020820180517bffffffffffffffffffffffffffffffffffffffffffffffffffffffff838183161783525050505061048d565b5050565b6104898282604051602401610407929190610588565b6040516020818303038152906040527f9710a9d0000000000000000000000000000000000000000000000000000000007bffffffffffffffffffffffffffffffffffffffffffffffffffffffff19166020820180517bffffffffffffffffffffffffffffffffffffffffffffffffffffffff838183161783525050505061048d565b5050565b60008151905060006a636f6e736f6c652e6c6f679050602083016000808483855afa5050505050565b6104bf81610679565b82525050565b60006104d0826105d3565b6104da81856105de565b93506104ea8185602086016106b5565b6104f381610717565b840191505092915050565b610507816106ab565b82525050565b600060408201905061052260008301856104b6565b61052f60208301846104fe565b9392505050565b6000602082019050818103600083015261055081846104c5565b905092915050565b6000604082019050818103600083015261057281856104c5565b905061058160208301846104b6565b9392505050565b600060408201905081810360008301526105a281856104c5565b90506105b160208301846104fe565b9392505050565b60006020820190506105cd60008301846104fe565b92915050565b600081519050919050565b600082825260208201905092915050565b60006105fa826106ab565b9150610605836106ab565b9250827fffffffffffffffffffffffffffffffffffffffffffffffffffffffffffffffff0382111561063a576106396106e8565b5b828201905092915050565b6000610650826106ab565b915061065b836106ab565b92508282101561066e5761066d6106e8565b5b828203905092915050565b60006106848261068b565b9050919050565b600073ffffffffffffffffffffffffffffffffffffffff82169050919050565b6000819050919050565b60005b838110156106d35780820151818401526020810190506106b8565b838111156106e2576000848401525b50505050565b7f4e487b7100000000000000000000000000000000000000000000000000000000600052601160045260246000fd5b6000601f19601f830116905091905056fea26469706673582212201b8b75dcf6dcf09a3b84f90ae57ab4faf0030932b53528abd50dbd34c438ff1364736f6c63430008000033596f20796f2c204920616d206120636f6e747261637420616e64204920616d20736d617274",
  "linkReferences": {},
  "deployedLinkReferences": {}
}